S01B0000536576656E7365676D656E7470726F6A6563742E737265631E
S11300000C942A000C943F000C943F000C943F0085
S11300100C943F000C943F000C943F000C943F0060
S11300200C943F000C943F000C943F000C943F0050
S11300300C943F000C943F000C943F000C943F0040
S11300400C943F000C943F000C943F000C943F0030
S11300500C943F0011241FBECFE5D8E0DEBFCDBF16
S113006010E0A0E6B0E0E8EDF0E002C005900D92EB
S1130070AA36B107D9F70E9441000C946A000C9487
S11300800000CF93DF93CDB7DEB729970FB6F8946E
S1130090DEBF0FBECDBF8FEF81BB89E0E0E6F0E0AD
S11300A0DE01119601900D928A95E1F79E01255F7C
S11300B03F4FFE013196819182BB4FEF80E792E082
S11300C0415080409040E1F700C00000E217F30780
S10B00D091F7EFCFF894FFCF84
S10D00D83F5B4F666D7D07FF6F006C
S9030000FC
