:100000000C942A000C943F000C943F000C943F0089
:100010000C943F000C943F000C943F000C943F0064
:100020000C943F000C943F000C943F000C943F0054
:100030000C943F000C943F000C943F000C943F0044
:100040000C943F000C943F000C943F000C943F0034
:100050000C943F0011241FBECFE5D8E0DEBFCDBF1A
:1000600010E0A0E6B0E0ECE0F1E002C005900D92F7
:10007000AA36B107D9F70E9441000C9484000C9471
:100080000000CF93DF93CDB7DEB72A970FB6F89471
:10009000DEBF0FBECDBF8FEF81BB87BBCE01019608
:1000A0007C019E01255F3F4F42E091E08AE0E0E65F
:1000B000F0E0D70101900D928A95E1F76E2D5F2D4A
:1000C000D7011FC048BB819182BB1FEF72E587E05B
:1000D000115070408040E1F700C0000098BB8C9147
:1000E00082BB1FEF72E587E0115070408040E1F75E
:1000F00000C000002E173F0729F711962A173B076B
:0C010000A9F2E62FF52FDECFF894FFCF18
:0A010C003F065B4F666D7D07FF6F35
:00000001FF
