:100000000C945D000C9485000C9485000C94850084
:100010000C9485000C9485000C9485000C9485004C
:100020000C9485000C9485000C9485000C9485003C
:100030000C9485000C9485000C9485000C9485002C
:100040000C9430010C9485000C9485000C94850070
:100050000C9485000C9485000C9485000C9485000C
:100060000C9485000C94850000000008000201003B
:100070000003040700000000000000000102040863
:100080001020408001020408102001020408102002
:10009000040404040404040402020202020203032E
:1000A0000303030300000000250028002B000000CC
:1000B0000000240027002A00CE0011241FBECFEF2D
:1000C000D8E0DEBFCDBF11E0A0E0B1E0E8EBF8E0A2
:1000D00002C005900D92A631B107D9F721E0A6E143
:1000E000B1E001C01D92A733B207E1F710E0CDE502
:1000F000D0E004C02197FE010E945404CC35D10702
:10010000C9F70E94E2000C945A040C94000020E00D
:1001100042E060E186E191E00E94D20260E071E09D
:1001200086E191E00E942E0168EE73E080E090E0AD
:100130000C949F01CF93DF93CDE0D0E086E191E076
:100140000E94B30366E970E080E090E00E949F01A6
:100150002197A1F7CDE1D0E086E191E00E94B603BE
:1001600066E970E080E090E00E949F012197A1F78E
:10017000C0E1D0E086E191E00E94B30366E970E05F
:1001800080E090E00E949F012197A1F768EE73E064
:1001900080E090E0DF91CF910C949F01CF92EF929D
:1001A0000F9382E0C82E93E0E92E04E025E04BE0B7
:1001B0006CE086E191E00E948D030F91EF90CF906B
:1001C000089508950E94D1010E94E1000E948700D5
:1001D000C0E0D0E00E949A002097E1F30E94000066
:1001E000F9CFCF92DF92EF92FF920F931F93CF93AD
:1001F000DF936C01EB017B01E40EF51E00E010E0E3
:10020000CE15DF0561F06991D601ED91FC91019069
:10021000F081E02DC6010995080F191FF1CFC80123
:10022000DF91CF911F910F91FF90EF90DF90CF90D2
:1002300008956115710579F0FB0101900020E9F73F
:100240003197AF01461B570BDC01ED91FC91028009
:10025000F381E02D099480E090E008950C94190159
:100260001F920F920FB60F9211242F933F938F93EB
:100270009F93AF93BF9380912F0190913001A091F4
:100280003101B091320130912E0123E0230F2D373F
:1002900020F40196A11DB11D05C026E8230F02968A
:1002A000A11DB11D20932E0180932F019093300149
:1002B000A0933101B09332018091330190913401C8
:1002C000A0913501B09136010196A11DB11D809319
:1002D000330190933401A0933501B0933601BF915F
:1002E000AF919F918F913F912F910F900FBE0F90E3
:1002F0001F9018953FB7F894809133019091340185
:10030000A0913501B091360126B5A89B05C02F3FBD
:1003100019F00196A11DB11D3FBFBA2FA92F982F2B
:100320008827820F911DA11DB11DBC01CD0142E0A6
:10033000660F771F881F991F4A95D1F70895CF92AE
:10034000DF92EF92FF92CF93DF936B017C010E94CB
:100350007A01EB01C114D104E104F10489F00E9497
:10036000BF030E947A016C1B7D0B683E734090F3C3
:1003700081E0C81AD108E108F108C851DC4FEACF82
:10038000DF91CF91FF90EF90DF90CF90089501978C
:1003900039F0880F991F880F991F02970197F1F77D
:1003A0000895789484B5826084BD84B5816084BDED
:1003B00085B5826085BD85B5816085BDEEE6F0E0DE
:1003C000808181608083E1E8F0E01082808182603A
:1003D0008083808181608083E0E8F0E080818160BB
:1003E0008083E1EBF0E0808184608083E0EBF0E0EB
:1003F000808181608083EAE7F0E08081846080838F
:100400008081826080838081816080838081806838
:1004100080831092C1000895CF93DF93EC0160E0D8
:100420008E810E94250481E090E00E94C70161E076
:100430008E810E94250481E090E00E94C70160E067
:100440008E810E94250484E690E0DF91CF910C9488
:10045000C701AF92BF92CF92DF92EF92FF920F93BC
:100460001F93CF93DF935C017C0187E0E80EF11CC2
:10047000C0E0D0E0062F10E0670161E0F701819154
:100480007F010E94E903B8010C2E02C075956795A3
:100490000A94E2F76170F60180810E94250421969A
:1004A000C430D10549F7C501DF91CF911F910F915C
:1004B000FF90EF90DF90CF90BF90AF900C940C0224
:1004C000AF92BF92CF92DF92EF92FF920F931F9362
:1004D000CF93DF935C017C0187E0E80EF11CC0E064
:1004E000D0E0062F10E0670161E0F70181917F0104
:1004F0000E94E903B8010C2E02C0759567950A9415
:10050000E2F76170F60180810E9425042196C830CF
:10051000D10549F7C501DF91CF911F910F91FF9050
:10052000EF90DF90CF90BF90AF900C940C021F9390
:10053000CF93DF93EC01162F642F8C810E9425044A
:100540008D818F3F19F060E00E9425048F85612F17
:1005500084FF06C0CE01DF91CF911F910C94600201
:1005600070E084E0759567958A95E1F7CE010E9469
:100570002902612FCE01DF91CF911F910C942902A6
:1005800040E00C94970261E00E94C00280ED97E089
:100590000C94C701FC016089262F2460208B6C60BD
:1005A0000C94C002CF93DF93EC01423018F08F859A
:1005B00088608F874B8B1C8A80E48D8B6E8B70E0FC
:1005C000605C7F4F6F8B222329F0413019F48F85B7
:1005D00084608F8780E593EC0E94C70160E08C8186
:1005E0000E94250460E08E810E9425048D818F3F4A
:1005F00019F060E00E9425046F8564FD1DC063E072
:10060000CE010E94290284E991E10E94C70163E0C2
:10061000CE010E94290284E991E10E94C70163E0B2
:10062000CE010E94290286E990E00E94C70162E0A3
:10063000CE010E94290216C06062CE010E94C00253
:1006400084E991E10E94C7016F856062CE010E943A
:10065000C00286E990E00E94C7016F856062CE010A
:100660000E94C0026F856062CE010E94C00284E0D9
:10067000888BCE010E94CA02CE010E94C30282E092
:10068000898B66E0CE01DF91CF910C94C0026F920E
:100690007F928F92AF92CF92EF920F931F93CF934F
:1006A000DF93CDB7DEB73C01162F842F5D854E85D5
:1006B0003F859889F301848325830683E782C0867A
:1006C000A1868286538744873587968761E00E949A
:1006D000E903F30185818F3F19F061E00E94E9038E
:1006E00061E0F30186810E94E903112319F0F3010F
:1006F000178603C080E1F301878720E041E060E1D5
:10070000C301DF91CF911F910F91EF90CF90AF90E8
:100710008F907F906F900C94D2028F92AF92CF9275
:10072000EF920F93DC0113961C921E921297E2E156
:10073000F1E0ED93FC931F921F921F921F928C2C5D
:10074000AE2CC02EE22E042F2FEF462F61E00E9428
:1007500047030F900F900F900F900F91EF90CF9055
:10076000AF908F90089568E10C94C0026CE10C94F6
:10077000C00241E00E94970281E090E00895089550
:10078000833081F028F4813099F08230A1F008950F
:100790008730A9F08830B9F08430D1F4809180009E
:1007A0008F7D03C0809180008F77809380000895B3
:1007B00084B58F7702C084B58F7D84BD0895809104
:1007C000B0008F7703C08091B0008F7D8093B00020
:1007D0000895CF93DF9390E0FC01E458FF4F2491FC
:1007E000FC01E057FF4F8491882361F190E0880F6E
:1007F000991FFC01E255FF4FC591D491FC01EC55C6
:10080000FF4FA591B491611109C09FB7F8948881F9
:10081000209582238883EC912E230BC0623061F4F3
:100820009FB7F8948881322F309583238883EC9189
:100830002E2B2C939FBF06C08FB7F894E8812E2BE8
:1008400028838FBFDF91CF9108951F93CF93DF93BC
:10085000282F30E0F901E859FF4F8491F901E4585D
:10086000FF4FD491F901E057FF4FC491CC23C1F061
:10087000162F81110E94C003EC2FF0E0EE0FFF1F36
:10088000EC55FF4FA591B4919FB7F894111104C096
:100890008C91D095D82302C0EC91DE2BDC939FBFC6
:1008A000DF91CF911F910895EE0FFF1F0590F491F6
:0808B000E02D0994F894FFCF3C
:1008B80068656C6C6F2C20776F726C642100000087
:0608C8000000B903F1007D
:00000001FF
