:100000000C942A000C943F000C943F000C943F0089
:100010000C943F000C943F000C943F000C943F0064
:100020000C943F000C943F000C943F000C943F0054
:100030000C943F000C943F000C943F000C943F0044
:100040000C943F000C943F000C943F000C943F0034
:100050000C943F0011241FBECFE5D8E0DEBFCDBF1A
:1000600010E0A0E6B0E0E2EEF0E002C005900D92F4
:10007000AA36B107D9F70E9441000C946F000C9486
:100080000000CF93DF93CDB7DEB72A970FB6F89471
:10009000DEBF0FBECDBF8FEF81BB8ABB8AE0E0E63B
:1000A000F0E0DE01119601900D928A95E1F7DE01F4
:1000B00012969E01255F3F4FFE013196819182BBD2
:1000C0004FE788E391E0415080409040E1F700C065
:1000D0000000E217F30791F78D918BBBEDCFF894F9
:0200E000FFCF50
:0A00E20000010203040506070809E7
:00000001FF
