:100000000C9462000C948A000C948A000C948A0070
:100010000C948A000C948A000C948A000C948A0038
:100020000C948A000C948A000C948A000C948A0028
:100030000C948A000C948A000C948A000C948A0018
:100040000C9406020C948A000C948A000C948A008A
:100050000C948A000C948A000C948A000C948A00F8
:100060000C948A000C948A00000000080002010031
:100070000003040700000000000000000102040863
:100080001020408001020408102001020408102002
:10009000040404040404040402020202020203032E
:1000A00003030303000000002300260029000000D2
:1000B0000000250028002B0000000000240027007D
:1000C0002A00FF0011241FBECFEFD8E0DEBFCDBF56
:1000D00011E0A0E0B1E0E8E1FBE002C005900D9284
:1000E000AC31B107D9F721E0ACE1B1E001C01D921C
:1000F000AF33B207E1F710E0C2E6D0E004C02197C9
:10010000FE010E948405C136D107C9F70E94130180
:100110000C948A050C94000060E085E00E943D0389
:1001200060E087E00E943D0361E08DE00E943D03B6
:1001300020E042E060E18EE191E00E94960463E0FD
:1001400071E08EE191E00C9465018EE00E94F7026F
:1001500090931D0180931C0185E00E94A8030197E4
:1001600049F4809100019091010101969093010161
:100170008093000187E00E94A803019749F48091D1
:10018000000190910101019790930101809300017A
:1001900020911C0130911D0180910001909101017D
:1001A0008217930714F461E001C060E08DE00E94C3
:1001B000790341E060E08EE191E00E947B04609170
:1001C0000001709101014AE050E08EE191E00E944F
:1001D000FF0141E064E08EE191E00E947B046091C8
:1001E0001C0170911D014AE050E08EE191E00E94F7
:1001F000FF016AEF70E080E090E00C947502CF920E
:10020000EF920F938BE0C82E9AE0E92E09E028E0E8
:1002100041E060E08EE191E00E943B050F91EF909C
:10022000CF90089508950E94BC020E9412010E947E
:100230008C00C0E0D0E00E94A5002097E1F30E946E
:100240000000F9CF80E090E008950895CF92DF920A
:10025000EF92FF920F931F93CF93DF936C017A017C
:100260008B01C0E0D0E0CE15DF0581F0D8016D91A3
:100270008D01D601ED91FC910190F081E02DC60138
:100280000995892B11F02196EECF7E01C701DF91F0
:10029000CF911F910F91FF90EF90DF90CF90089535
:1002A0006115710579F0FB0101900020E9F73197A4
:1002B000AF01461B570BDC01ED91FC910280F381ED
:1002C000E02D099480E090E008950C945001DC0149
:1002D000ED91FC910190F081E02D09948F929F9215
:1002E000AF92BF92EF92FF920F931F93CF93DF9342
:1002F000CDB7DEB7A1970FB6F894DEBF0FBECDBF66
:100300007C01FA01CB0119A2223008F42AE08E0107
:100310000F5D1F4F822E912CA12CB12CBF01A50186
:1003200094010E946205F901CA01015011096A3065
:1003300010F4605D01C0695CD8016C93232B242B01
:10034000252B61F7B801C7010E945001A1960FB695
:10035000F894DEBF0FBECDBFDF91CF911F910F91FB
:10036000FF90EF90BF90AF909F908F900895CF92A5
:10037000DF92EF92FF920F931F93CF93DF9321159C
:10038000310581F4DC01ED91FC910190F081E02DCB
:10039000642FDF91CF911F910F91FF90EF90DF902D
:1003A000CF9009942A30310501F577FF1DC06A010D
:1003B0007B01EC016DE20E9467018C014427552707
:1003C000BA014C195D096E097F092AE0CE010E942D
:1003D0006E01800F911FDF91CF911F910F91FF90C0
:1003E000EF90DF90CF9008952AE0DF91CF911F9199
:1003F0000F91FF90EF90DF90CF900C946E019A01D7
:10040000AB01770F660B770B0C94B7011F920F921D
:100410000FB60F9211242F933F938F939F93AF9317
:10042000BF938091370190913801A0913901B0912B
:100430003A013091360123E0230F2D3720F4019645
:10044000A11DB11D05C026E8230F0296A11DB11DF7
:10045000209336018093370190933801A09339019E
:10046000B0933A0180913B0190913C01A0913D01F4
:10047000B0913E010196A11DB11D80933B01909367
:100480003C01A0933D01B0933E01BF91AF919F917C
:100490008F913F912F910F900FBE0F901F90189545
:1004A0003FB7F89480913B0190913C01A0913D01B0
:1004B000B0913E0126B5A89B05C02F3F19F00196CB
:1004C000A11DB11D3FBFBA2FA92F982F8827820FDA
:1004D000911DA11DB11DBC01CD0142E0660F771F2A
:1004E000881F991F4A95D1F708958F929F92AF92D6
:1004F000BF92CF92DF92EF92FF926B017C010E943C
:1005000050024B015C01C114D104E104F10401F17A
:100510000E9461050E945002DC01CB0188199909F3
:10052000AA09BB09883E9340A105B10560F321E00B
:10053000C21AD108E108F10888EE880E83E0981EFF
:10054000A11CB11CC114D104E104F10419F7DBCFE3
:10055000FF90EF90DF90CF90BF90AF909F908F90E3
:1005600008958230910538F0880F991F880F991FE0
:1005700005970197F1F70895789484B5826084BD5A
:1005800084B5816084BD85B5826085BD85B5816097
:1005900085BDEEE6F0E0808181608083E1E8F0E0F7
:1005A0001082808182608083808181608083E0E826
:1005B000F0E0808181608083E1EBF0E08081846005
:1005C0008083E0EBF0E0808181608083EAE7F0E007
:1005D000808184608083808182608083808181606B
:1005E00080838081806880831092C10008958E305E
:1005F00008F08E502091020190E4299F900111246F
:100600008770822B80937C0080917A008064809335
:100610007A0080917A0086FDFCCF8091780020914D
:10062000790090E0922B0895833081F028F4813096
:1006300099F08230A1F008958730A9F08830B9F0A0
:100640008430D1F4809180008F7D03C08091800040
:100650008F7780938000089584B58F7702C084B52A
:100660008F7D84BD08958091B0008F7703C0809105
:10067000B0008F7D8093B0000895CF93DF9390E01A
:10068000FC01E458FF4F2491FC01E057FF4F849197
:10069000882361F190E0880F991FFC01E854FF4F17
:1006A000C591D491FC01E255FF4FA591B491611120
:1006B00009C09FB7F8948881209582238883EC91A4
:1006C0002E230BC0623061F49FB7F8948881322FDB
:1006D000309583238883EC912E2B2C939FBF06C0EB
:1006E0008FB7F894E8812E2B28838FBFDF91CF91AD
:1006F00008951F93CF93DF93282F30E0F901E85935
:10070000FF4F8491F901E458FF4FD491F901E0576C
:10071000FF4FC491CC23C1F0162F81110E94140306
:10072000EC2FF0E0EE0FFF1FE255FF4FA591B491C3
:100730009FB7F894111104C08C91D095D82302C0B2
:10074000EC91DE2BDC939FBFDF91CF911F91089539
:10075000CF93DF93282F30E0F901E859FF4F8491C0
:10076000F901E458FF4FD491F901E057FF4FC491CC
:10077000CC2391F081110E941403EC2FF0E0EE0FD6
:10078000FF1FEC55FF4FA591B491EC91ED2381E053
:1007900090E021F480E002C080E090E0DF91CF9112
:1007A0000895CF93DF93EC0160E08E810E9479037E
:1007B00081E090E00E94B10261E08E810E947903A5
:1007C00081E090E00E94B10260E08E810E94790396
:1007D00084E690E0DF91CF910C94B102CF92DF924A
:1007E000EF92FF920F931F93CF93DF936C017C01E5
:1007F00087E0E80EF11CC0E0D0E0062F10E0B80161
:100800000C2E02C0759567950A94E2F76170F701A6
:1008100081917F010E9479032196C430D10579F737
:10082000C601DF91CF911F910F91FF90EF90DF9064
:10083000CF900C94D103CF92DF92EF92FF920F935F
:100840001F93CF93DF936C017C0187E0E80EF11CCE
:10085000C0E0D0E0062F10E0B8010C2E02C0759564
:1008600067950A94E2F76170F70181917F010E9418
:1008700079032196C830D10579F7C601DF91CF9170
:100880001F910F91FF90EF90DF90CF900C94D103C8
:100890001F93CF93DF93EC01162F642F8C810E945E
:1008A00079038D818F3F19F060E00E9479038F8575
:1008B000612F84FF06C0CE01DF91CF911F910C9470
:1008C0001B0470E084E0759567958A95E1F7CE0189
:1008D0000E94EE03612FCE01DF91CF911F910C9406
:1008E000EE0340E00C94480461E00E94710480ED46
:1008F00097E00C94B102FC01443008F043E0838996
:10090000481710F04FEF480FDF01A40FB11D5496A8
:100910009C91690F6068CF010C947104FC0160899F
:10092000262F2460208B6C600C947104EF92FF9250
:100930000F931F93CF93DF93EC01423018F08F8514
:1009400088608F874B8B1C8A80E48D8B6E8B70E068
:10095000605C7F4F6F8B222329F0413019F48F8523
:1009600084608F8761E08C810E943D038D818F3F81
:1009700019F061E00E943D0361E08E810E943D0319
:100980007E0187E0E80EF11C00E010E08F8584FD19
:1009900003C084E090E002C088E090E008171907E7
:1009A0004CF461E0F70181917F010E943D030F5FEC
:1009B0001F4FECCF80E593EC0E94B10260E08C8188
:1009C0000E94790360E08E810E9479038D818F3FC0
:1009D00019F060E00E9479036F8564FD1DC063E03B
:1009E000CE010E94EE0384E991E10E94B10263E02E
:1009F000CE010E94EE0384E991E10E94B10263E01E
:100A0000CE010E94EE0386E990E00E94B10262E00E
:100A1000CE010E94EE0316C06062CE010E947104F6
:100A200084E991E10E94B1026F856062CE010E946B
:100A3000710486E990E00E94B1026F856062CE0188
:100A40000E9471046F856062CE010E94710484E08F
:100A5000888BCE010E948E04CE010E94740482E035
:100A6000898B66E0CE01DF91CF911F910F91FF90AE
:100A7000EF900C947104CF92EF920F93FC011382CC
:100A8000128284E191E09183808364838FEF858378
:100A9000468327830087E186C286138614861586DF
:100AA0001686178620E041E060E1CF010F91EF90BC
:100AB000CF900C94960441E00E94480481E090E0BD
:100AC00008950895A1E21A2EAA1BBB1BFD010DC0BB
:100AD000AA1FBB1FEE1FFF1FA217B307E407F507EE
:100AE00020F0A21BB30BE40BF50B661F771F881FCA
:100AF000991F1A9469F760957095809590959B0160
:100B0000AC01BD01CF010895EE0FFF1F0590F491D8
:080B1000E02D0994F894FFCFD9
:100B18000F000154656D70657261747572653A00F5
:0C0B2800000000005B05260122012501F1
:00000001FF
