:100000000C942A000C943F000C943F000C943F0089
:100010000C943F000C943F000C943F000C943F0064
:100020000C943F000C943F000C943F000C943F0054
:100030000C943F000C943F000C943F000C943F0044
:100040000C943F000C943F000C943F000C943F0034
:100050000C943F0011241FBECFE5D8E0DEBFCDBF1A
:1000600010E0A0E6B0E0EAEEF0E002C005900D92EC
:10007000AA36B107D9F70E9441000C9473000C9482
:100080000000CF93DF93CDB7DEB72A970FB6F89471
:10009000DEBF0FBECDBF8FEF81BB81E187BB8AE0A2
:1000A000E0E6F0E0DE01119601900D928A95E1F70D
:1000B000AE01455F5F4F21E092E0FE0131968191F4
:1000C00082BB28BBABE4BDE11197F1F700C0000093
:1000D00098BBAFE1BEE41197F1F700C00000E41750
:0A00E000F50769F7EACFF894FFCFA7
:0A00EA003F065B4F666D7D077F6FD8
:00000001FF
