S0120000416C6C50726F6A6563742E7372656322
S11300000C9434000C9449000C9449000C9449005D
S11300100C9449000C9449000C9449000C94490038
S11300200C9449000C9449000C9449000C94490028
S11300300C9449000C9449000C9449000C94490018
S11300400C9449000C9449000C9449000C94490008
S11300500C9449000C9449000C9449000C944900F8
S11300600C9449000C94490011241FBECFEFD8E032
S1130070DEBFCDBF11E0A0E0B1E0E4E0F5E002C0F6
S113008005900D92A631B107D9F70E946E000C9429
S113009080020C9400001092C50083E38093C40096
S11300A088E18093C10086E08093C2000895E0EC6B
S11300B0F0E0908195FFFDCF8093C6000895CF9323
S11300C0DF93EC018881882331F021960E94570048
S11300D089918111FBCFDF91CF910895CF93DF9365
S11300E000D000D0CDB7DEB70E944B008FEF84B9AB
S11300F015B88AB183608AB9ECE7F0E0808187643F
S11301008083EAE7F0E08081876880830AE710E073
S11301100F2EF8E7AF2EB12CF02D6894992492F8A5
S11301206894772471F888248394F801808180642A
S11301308083F801808186FDFCCFF50160817181A7
S113014080E090E00E94320128E138E74EEF5EE360
S11301500E94C1016B017C010E940301DC01CB01FF
S11301604AE0BE016F5F7F4F0E94560280E091E03B
S11301700E945F00CE0101960E945F0081E191E040
S11301800E945F0084E191E00E945F0095B820E046
S113019030E040ED51E4C701B6010E94FE0088231F
S11301A014F485B821C020E030E040EC51E4C701EC
S11301B0B6010E94BC01882364F020E030E040EFE7
S11301C051E4C701B6010E94FE00882314F475B8F7
S11301D00BC020E030E040EF51E4C701B6010E94BB
S11301E0BC0188230CF095B8FFEF21EE84E0F150B8
S11301F020408040E1F700C0000097CF0E946F01CB
S113020008F481E008950E949B0188F09F5798F0BC
S1130210B92F9927B751B0F0E1F0660F771F881F07
S1130220991F1AF0BA95C9F714C0B13091F00E9421
S1130230B501B1E008950C94B501672F782F882794
S1130240B85F39F0B93FCCF3869577956795B39548
S1130250D9F73EF490958095709561957F4F8F4FB7
S11302609F4F0895E89409C097FB3EF490958095BC
S1130270709561957F4F8F4F9F4F9923A9F0F92F68
S113028096E9BB279395F695879577956795B795E6
S1130290F111F8CFFAF4BB0F11F460FF1BC06F5FCC
S11302A07F4F8F4F9F4F16C0882311F096E911C0DE
S11302B0772321F09EE8872F762F05C0662371F0FF
S11302C096E8862F70E060E02AF09A95660F771F13
S11302D0881FDAF7880F9695879597F90895990FEF
S11302E00008550FAA0BE0E8FEEF16161706E807FC
S11302F0F907C0F012161306E407F50798F0621B1D
S1130300730B840B950B39F40A2661F0232B242BF1
S1130310252B21F408950A2609F4A140A6958FEF10
S1130320811D811D089557FD9058440F551F59F0A4
S11303305F3F71F04795880F97FB991F61F09F3FCE
S113034079F087950895121613061406551FF2CFF7
S11303504695F1DF08C0161617061806991FF1CF47
S113036086957105610508940895E894BB2766276E
S11303707727CB0197F908950E946F0108F48FEF56
S113038008950E94D4010C9445020E94370238F06B
S11303900E943E0220F0952311F00C942E020C943E
S11303A0340211240C94B6010E94930170F3959FBA
S11303B0C1F3950F50E0551F629FF001729FBB2758
S11303C0F00DB11D639FAA27F00DB11DAA1F649FF4
S11303D06627B00DA11D661F829F2227B00DA11DA7
S11303E0621F739FB00DA11D621F839FA00D611D2D
S11303F0221F749F3327A00D611D231F849F600D4E
S1130400211D822F762F6A2F11249F5750409AF076
S1130410F1F088234AF0EE0FFF1FBB1F661F771F02
S1130420881F91505040A9F79E3F510580F00C94CD
S11304302E020C94B6015F3FE4F3983ED4F3869504
S113044077956795B795F795E7959F5FC1F7FE2B6D
S1130450880F911D9695879597F9089597F99F6749
S113046080E870E060E008959FEF80EC0895002438
S11304700A941616170618060906089500240A9405
S113048012161306140605060895092E0394000C8B
S113049011F4882352F0BB0F40F4BF2B11F460FF1A
S11304A004C06F5F7F4F8F4F9F4F0895BB27FB01A1
S11304B05527AA27880F991FAA1FA41710F0A41B59
S11304C083955051B9F7A05DAA3308F0A95DA193B3
S11304D0009779F7B111B1931192CB010C9470028A
S11304E0DC01FC01672F71917723E1F7329704C097
S11304F07C916D9370836291AE17BF07C8F3089522
S1070500F894FFCF99
S113050454656D70657261747572652069733A20FF
S1090514002A43000D0063
S9030000FC
