:100000000C9434000C9449000C9449000C94490061
:100010000C9449000C9449000C9449000C9449003C
:100020000C9449000C9449000C9449000C9449002C
:100030000C9449000C9449000C9449000C9449001C
:100040000C9449000C9449000C9449000C9449000C
:100050000C9449000C9449000C9449000C944900FC
:100060000C9449000C94490011241FBECFEFD8E036
:10007000DEBFCDBF11E0A0E0B1E0E0E0F1E002C002
:1000800005900D92A831B107D9F70E946E000C942B
:100090007E000C9400001092C50083E38093C4009E
:1000A00088E18093C10086E08093C2000895E0EC6F
:1000B000F0E0908195FFFDCF8093C6000895CF9327
:1000C000DF93EC018881882331F021960E9457004C
:1000D00089918111FBCFDF91CF9108950E944B0050
:1000E00080E091E00E945F002FEF84E39CE02150CC
:1000F00080409040E1F700C00000F2CFF894FFCFBD
:10010000204E6F79616B68616C6920426976616726
:08011000204368617921210000
:00000001FF
