:100000000C9434000C9449000C9449000C94490061
:100010000C9449000C9449000C9449000C9449003C
:100020000C9449000C9449000C9449000C9449002C
:100030000C9449000C9449000C9449000C9449001C
:100040000C9449000C9449000C9449000C9449000C
:100050000C9449000C9449000C9449000C944900FC
:100060000C9449000C94490011241FBECFEFD8E036
:10007000DEBFCDBF11E0A0E0B1E0EAE0F1E002C0F8
:1000800005900D92A431B107D9F70E9462000C943B
:1000900083000C940000E0ECF0E0908195FFFDCF30
:1000A0008093C6000895CF93DF93EC018881882365
:1000B00031F021960E944B0089918111FBCFDF9195
:1000C000CF910895CF93DF93CDB7DEB763970FB687
:1000D000F894DEBF0FBECDBF83E1E0E0F1E0DE01CA
:1000E000119601900D928A95E1F7CE0101960E943A
:1000F00053002FEF80E792E0215080409040E1F7DD
:0A01000000C00000F2CFF894FFCF1A
:10010A006B6A646B736A646B736A6B73646A736435
:04011A006A73000004
:00000001FF
