S01C000041757264696F6E6F4C4344313678327363726F6C2E73726563C0
S11300000C94D9000C9401010C9401010C9401018D
S11300100C9401010C9401010C9401010C94010154
S11300200C9401010C9401010C9401010C94010144
S11300300C9401010C9401010C9401010C94010134
S11300400C94820A0C9401010C944C080C947E08C4
S11300500C9401010C9401010C9401010C94010114
S11300600C9401010C940101005EBCE2613FDD834C
S1130070C29C7E20A3FD1F419DC3217FFCA2401E84
S11300805F01E3BD3E6082DC237D9FC1421CFEA074
S1130090E1BF5D0380DE3C62BEE0025CDF81633D64
S11300A07C22C09E1D43A1FF4618FAA427799BC554
S11300B084DA3866E5BB5907DB856739BAE4065844
S11300C01947A5FB7826C49A653BD987045AB8E634
S11300D0A7F91B45C6987A24F8A6441A99C7257B24
S11300E03A6486D85B05E7B98CD2306EEDB3510F14
S11300F04E10F2AC2F7193CD114FADF3702ECC9204
S1130100D38D6F31B2EC0E50AFF1134DCE90722CF3
S11301106D33D18F0C52B0EE326C8ED0530DEFB1E3
S1130120F0AE4C1291CF2D73CA947628ABF51749D3
S11301300856B4EA6937D58B5709EBB536688AD4C3
S113014095CB2977F4AA4816E9B7550B88D6346AB3
S11301502B7597C94A14F6A8742AC896154BA9F7A3
S1130160B6E80A54D7896B35010204081020408090
S113017001020408102001020408102004040404ED
S1130180040404040202020202020303030303033D
S113019000000000230026002900000000002500C4
S11301A028002B0000000000240027002A00390149
S11301B0AE0811241FBECFEFD8E0DEBFCDBF11E0E3
S11301C0A0E0B1E0E4ECF9E102C005900D92A2399F
S11301D0B107D9F722E0A2E9B1E001C01D92A93527
S11301E0B207E1F710E0C9EDD0E004C02197FE01A9
S11301F00E94DA0CC73DD107C9F70E94DC080C94B1
S1130200E00C0C94000026E040E855E260E070E069
S113021083EB91E00E94E70760E071E083EB91E0FB
S11302200E94370982E991E00C9434026BE271E098
S113023083EB91E00E942A0982E991E00E9419036C
S113024067E471E083EB91E00E9437096CE471E0AC
S113025083EB91E00E942A0960E082E991E00E9428
S1130260AC03AB01BC0122E030E083EB91E00C94E1
S1130270800A62E085EA91E00E94F30465EA71E095
S113028082E991E00C9445010895FC0184E491E035
S1130290928B818B768365831482108289E08183BB
S11302A081E0828383830895CF93DF93EB0167E03A
S11302B0CE010E949D0591E02F81281390E0892FA3
S11302C0DF91CF910895EF92FF920F931F93CF93F5
S11302D0DF938C017B01D42FFC01858196810E94E0
S11302E0E704C0E041E0B701F801858196810E94EE
S11302F01605882359F0DC1306C0B701C8010E9413
S11303005401811104C0CF5FDC1760F780E0DF91F6
S1130310CF911F910F91FF90EF900895EF92FF926C
S11303200F931F93CF93DF938C01EB017A01FC01B0
S1130330858196810E94D703882311F1BE01F801BB
S1130340858196810E94C40440E06EEBF8018581AA
S113035096810E947404E701F9E0EF0EF11CF801A4
S1130360858196810E94A8048993CE15DF05B9F78B
S1130370F801858196810E94D70391E0813009F0CC
S113038090E0892FDF91CF911F910F91FF90EF9013
S11303900895CF93DF93EA010E948E01882339F0F8
S11303A068E0CE010E949D0591E02885281390E025
S11303B0892FDF91CF9108950F931F93CF93DF93EC
S11303C0EC018B018D819E810E94D703B8018D8140
S11303D09E810E94C40440E064EB8D819E810E9452
S11303E074048D819E810E944904182F8D819E8101
S11303F00E94D70381E0111180E0DF91CF911F911A
S11304000F910895CF93DF93CDB7DEB729970FB639
S1130410F894DEBF0FBECDBFFB0120812031D1F0A7
S1130420AE014F5F5F4F0E94C901882389F08D811F
S11304308F3361F020F48F3159F489E00CC08F358B
S113044019F08F3739F004C08BE005C08AE003C08F
S113045080E001C08CE029960FB6F894DEBF0FBE91
S1130460CDBFDF91CF910895FF920F931F93CF9348
S1130470DF93CDB7DEB761970FB6F894DEBF0FBE3A
S1130480CDBF8C01FC01858196810E94E704F801AF
S1130490148241E0BE01665F7F4FF8018581968139
S11304A00E9416058823D1F1BE01665F7F4FC80103
S11304B00E945401882369F3F8018081811108C0E6
S11304C0BE01665F7F4FC8010E94DC01811122C01A
S11304D0AE014F5F5F4FBE01665F7F4FC8010E9450
S11304E08E01F801F180BE01665F7F4FC8010E9452
S11304F002028F1518F4F801818106C0BE01665FFF
S11305007F4FC8010E940202F801818384818F5FBA
S11305108483BFCF81E0F8018083DACF61960FB680
S1130520F894DEBF0FBECDBFDF91CF911F910F9125
S1130530FF900895CF93DF93CDB7DEB729970FB619
S1130540F894DEBF0FBECDBFAE014F5F5F4F0E9478
S11305508E0181E09981911101C080E029960FB646
S1130560F894DEBF0FBECDBFDF91CF9108958F9277
S11305709F92AF92BF92CF92DF92EF92FF920F932E
S11305801F93CF93DF93EC01E7EFE60FE33040F4E2
S1130590F0E0EE0FFF1FE659FE4FC080D18004C08B
S11305A08EEEC82E82E0D82E4115510519F18B81AB
S11305B0882301F1888181111DC08A010E94CC0A1F
S11305C04B015C010D2C000CEE08FF08B801CE01B4
S11305D00E949A02811120C00E94CC0ADC01CB0146
S11305E08C199D09AE09BF0988159905AA05BB0593
S11305F068F312C0B601DD0C880B990BDF91CF9123
S11306001F910F91FF90EF90DF90CF90BF90AF902C
S11306109F908F900C94FD0ADF91CF911F910F91C1
S1130620FF90EF90DF90CF90BF90AF909F908F900E
S11306300895CF93DF93EC018D819E810E94D703AF
S11306408D819E810E94E304488164E48D819E81B2
S11306500E9474048A81882341F040E050E069815B
S1130660CE01DF91CF910C94B702DF91CF91089521
S1130670FA01218130E0C901982F8827990F990F39
S1130680990F208148E0249F90011124282B392BB5
S1130690DB018C918031C1F4678170E08681AB010C
S11306A0481B5109CA019695982F882797958795D5
S11306B00E94900C60517109207F53E0220F331F78
S11306C05A95E1F7260F371FC9010895EF92FF925B
S11306D00F931F93CF93DF93CDB7DEB729970FB650
S11306E0F894DEBF0FBECDBF8C017B01AE014F5F1E
S11306F05F4F0E94C901882341F0AE014F5F5F4FF5
S1130700B701C8010E94380302C080E894EE29961C
S11307100FB6F894DEBF0FBECDBFDF91CF911F910E
S11307200F91FF90EF9008950E946603813824EEA4
S113073092076CF0BC01990F880B990B0E94190663
S113074020E030E040E05CE30E94A506089560E00C
S113075070E08EEF92EC08950F931F93CF93DF9385
S1130760CDB7DEB728970FB6F894DEBF0FBECDBF66
S11307708C01462FBE016F5F7F4F0E946301882367
S113078039F0BE016F5F7F4FC8010E94940304C01B
S113079060E070E08EEF92EC28960FB6F894DEBF1E
S11307A00FBECDBFDF91CF911F910F910895FF929E
S11307B00F931F93CF93DF93FC01F080C181D2810B
S11307C0F89489810F2D00958023898378941DE7FF
S11307D0115029F182E090E00E94390B88818F2129
S11307E0B9F3F8948A8180238A8389818F29898344
S11307F0789480EE91E00E94390BF8948981082363
S1130800098386E490E00E94390B8881F82211E084
S113081009F010E078948AE991E00E94390B812F65
S1130820DF91CF911F910F91FF9008951F93CF9364
S1130830DF93FC011081C181D281812F809560FFFB
S113084012C0F8949A8189238A838981812B8983B0
S11308508AE090E00E94390B8A81182B1A837894DD
S113086087E390E011C0F8949A8189238A8389816F
S1130870812B898381E490E00E94390B8A81182BB3
S11308801A83789485E090E0DF91CF911F910C94C6
S1130890390B0F931F93CF93DF93FC010081C18128
S11308A0D281F8948981802B89838A81102F1095B5
S11308B081238A8383E090E00E94390B8981182385
S11308C019838AE090E00E94390BC881789485E30B
S11308D090E00E94390BC02381E009F480E0DF91AD
S11308E0CF911F910F910895DF92EF92FF920F9392
S11308F01F93CF93DF93EC01D62EE42E08E010E093
S1130900FF24F39461E08D2D8F2109F460E0CE0182
S11309100E941604FF0C01501109A1F7E11010C048
S1130920F894E981FA819181888180958923818372
S1130930E981FA81928188818095892382837894E0
S1130940DF91CF911F910F91FF90EF90DF90089569
S1130950EF92FF920F931F93CF93DF937C0108E0F4
S113096010E0C0E0D1E0C7010E9449048111CD2B01
S1130970DD0F01501109B9F78C2FDF91CF911F9131
S11309800F91FF90EF900895EF92FF920F931F93B2
S1130990CF93DF938C017B0140E065E50E947404F2
S11309A0E70188E0E80EF11C699140E0C8010E946B
S11309B07404CE15DF05C1F7DF91CF911F910F911C
S11309C0FF90EF90089540E06CEC0C947404FC01EB
S11309D0138615861486DC011B9633961E92AE1779
S11309E0BF07E1F708951F93CF93DF93EC01162F10
S11309F060E0812F0E947F0B612F70E0FB01E859BA
S1130A00FE4FE491E883FB01E458FE4FE491F0E0EB
S1130A10EE0FFF1FE057FE4F859194919A838983CF
S1130A20CE01DF91CF911F910C94E704BF92CF9236
S1130A30DF92EF92FF920F931F93CF93DF93EC011A
S1130A406B01142F8D85811105C0CE010E94D7033F
S1130A50811105C01B861D861C8680E064C040E0B1
S1130A60112311F060EF01C06CEECE010E947404FA
S1130A7001E0E12CB12C11E0CE010E944904F82ED2
S1130A80CE010E94490491E0F91203C08130B1F40F
S1130A9034C02E2D30E0F8121BC08B85181738F4A3
S1130AA0FE01E20FF31F8381802341F402C0181773
S1130AB029F0F12C193058F41C8709C0FE01EE0D01
S1130AC0F11D8381802B8383FF24F39409C0B12E0D
S1130AD0FE01E20FF31F9381802F80958923838386
S1130AE06F2DCE010E9416041F5F000F11F4E394D2
S1130AF001E087E08E1508F0BFCF113408F4AACFC7
S1130B00BB86B11002C081E08D878B81882309F4F4
S1130B10A1CFDE011396F6012B968D918193CA170E
S1130B20DB07D9F781E0DF91CF911F910F91FF90FF
S1130B30EF90DF90CF90BF900895DC0180E061508A
S1130B4040F09D91E82FE927F0E0E859FF4F8491A8
S1130B50F6CF08955058BB27AA270E94C2050C94CB
S1130B606B060E945D0638F00E94640620F039F49A
S1130B709F3F19F426F40C945A060EF4E095E7FB13
S1130B800C945406E92F0E947C0658F3BA176207A6
S1130B9073078407950720F079F4A6F50C949E0654
S1130BA00EF4E0950B2EBA2FA02D0B01B901900184
S1130BB00C01CA01A0011124FF27591B99F0593FC8
S1130BC050F4503E68F11A16F040A22F232F342F10
S1130BD04427585FF3CF469537952795A795F0405E
S1130BE05395C9F77EF41F16BA0B620B730B840B73
S1130BF0BAF09150A1F0FF0FBB1F661F771F881F2B
S1130C00C2F70EC0BA0F621F731F841F48F4879582
S1130C1077956795B795F7959E3F08F0B0CF939574
S1130C20880F08F09927EE0F979587950895E89413
S1130C3009C097FB3EF490958095709561957F4F20
S1130C408F4F9F4F9923A9F0F92F96E9BB279395CE
S1130C50F695879577956795B795F111F8CFFAF4DE
S1130C60BB0F11F460FF1BC06F5F7F4F8F4F9F4F0F
S1130C7016C0882311F096E911C0772321F09EE86D
S1130C80872F762F05C0662371F096E8862F70E0D3
S1130C9060E02AF09A95660F771F881FDAF7880FAD
S1130CA09695879597F9089597F99F6780E870E07E
S1130CB060E008959FEF80EC089500240A941616CE
S1130CC0170618060906089500240A941216130636
S1130CD0140605060895092E0394000C11F48823C4
S1130CE052F0BB0F40F4BF2B11F460FF04C06F5FE0
S1130CF07F4F8F4F9F4F089557FD9058440F551FB6
S1130D0059F05F3F71F04795880F97FB991F61F089
S1130D109F3F79F087950895121613061406551F00
S1130D20F2CF4695F1DF08C0161617061806991F6C
S1130D30F1CF86957105610508940895E894BB2761
S1130D4066277727CB0197F908950E94B8060C947B
S1130D506B060E945D0638F00E94640620F095231D
S1130D6011F00C9454060C945A0611240C949F060A
S1130D700E947C0670F3959FC1F3950F50E0551FB8
S1130D80629FF001729FBB27F00DB11D639FAA27DC
S1130D90F00DB11DAA1F649F6627B00DA11D661F2B
S1130DA0829F2227B00DA11D621F739FB00DA11D4C
S1130DB0621F839FA00D611D221F749F3327A00D06
S1130DC0611D231F849F600D211D822F762F6A2FA2
S1130DD011249F5750409AF0F1F088234AF0EE0F07
S1130DE0FF1FBB1F661F771F881F91505040A9F734
S1130DF09E3F510580F00C9454060C949F065F3F6F
S1130E00E4F3983ED4F3869577956795B795F7956F
S1130E10E7959F5FC1F7FE2B880F911D96958795E7
S1130E2097F90895FC01918D228D892F90E0805CC3
S1130E309F4F821B91098F7399270895FC01918D0F
S1130E40828D981731F0828DE80FF11D858D90E029
S1130E5008958FEF9FEF0895FC01918D828D98176F
S1130E6061F0828DDF01A80FB11D5D968C91928D8A
S1130E709F5F9F73928F90E008958FEF9FEF089587
S1130E80FC01538D448D252F30E0842F90E0821B8C
S1130E90930B541710F0CF9608950197089584EAA0
S1130EA098E0892B49F080E090E0892B29F00E949A
S1130EB0A40881110C9400000895FC01848DDF01C5
S1130EC0A80FB11DA35ABF4F2C91848D90E00196B9
S1130ED08F739927848FA689B7892C93A089B189A8
S1130EE08C9180648C93938D848D981306C00288B2
S1130EF0F389E02D80818F7D80830895EF92FF92A6
S1130F000F931F93CF93DF93EC0181E0888F9B8D28
S1130F108C8D981305C0E889F989808185FD24C0EA
S1130F20F62E0B8D10E00F5F1F4F0F731127E02E6D
S1130F308C8DE8120CC00FB607FCFACFE889F9894A
S1130F40808185FFF5CFCE010E945D07F1CF8B8DA7
S1130F50FE01E80FF11DE35AFF4FF0820B8FEA897F
S1130F60FB898081806207C0EE89FF896083E889FC
S1130F70F98980818064808381E090E0DF91CF9162
S1130F801F910F91FF90EF900895CF93DF93EC01A1
S1130F90888D8823C9F0EA89FB89808185FD05C095
S1130FA0A889B9898C9186FD0FC00FB607FCF5CFCF
S1130FB0808185FFF2CFA889B9898C9185FFEDCF17
S1130FC0CE010E945D07E7CFDF91CF910895CF92C4
S1130FD0DF92EF92FF921F93CF93DF93EC016A01AC
S1130FE07B01122FE889F98982E080834115514EF3
S1130FF061057105B1F060E079E08DE390E0A7014F
S113100096010E94A40CDA01C9010197A109B10952
S1131010B695A795979587959C01211580E138078A
S1131020A8F0E889F989108260E874E88EE190E01C
S1131030A70196010E94A40CDA01C9010197A10934
S1131040B109B695A795979587959C01EC85FD8583
S11310503083EE85FF852083188EEC89FD8910830B
S1131060EA89FB89808180618083EA89FB898081A8
S113107088608083EA89FB89808180688083EA892B
S1131080FB8980818F7D8083DF91CF911F91FF90B9
S1131090EF90DF90CF9008951F920F920FB60F92AA
S11310A011242F938F939F93EF93FF93E091C301A8
S11310B0F091C4018081E091C901F091CA0182FDDF
S11310C012C090818091CC018F5F8F732091CD01EC
S11310D0821751F0E091CC01F0E0ED54FE4F958F72
S11310E08093CC0101C08081FF91EF919F918F91FA
S11310F02F910F900FBE0F901F9018951F920F9273
S11311000FB60F9211242F933F934F935F936F93D6
S11311107F938F939F93AF93BF93EF93FF9383EB4F
S113112091E00E945D07FF91EF91BF91AF919F9174
S11311308F917F916F915F914F913F912F910F907C
S11311400FBE0F901F90189583EB91E00E94120739
S113115021E0892B09F420E0822F0895E3EBF1E0EC
S11311601382128288EE93E0A0E0B0E0848395833A
S1131170A683B78384E791E09183808385EC90E034
S11311809587848784EC90E09787868780EC90E04D
S1131190918B808B81EC90E0938B828B82EC90E03E
S11311A0958B848B86EC90E0978B868B118E128EB8
S11311B0138E148E089508950E94440B0E94DB0838
S11311C00E940301CFE4D7E00E9416012097E1F3C7
S11311D00E944F07F9CFCF92DF92EF92FF920F93C5
S11311E01F93CF93DF936C017A018B01C0E0D0E0B1
S11311F0CE15DF0581F0D8016D918D01D601ED91F9
S1131200FC910190F081E02DC6010995892B11F024
S11312102196EECF7E01C701DF91CF911F910F91EF
S1131220FF90EF90DF90CF9008956115710579F0EC
S1131230FB0101900020E9F73197AF01461B570BE2
S1131240DC01ED91FC910280F381E02D099480E0B2
S113125090E008950C941509DC01ED91FC91019046
S1131260F081E02D099462E871E00C9415090F9364
S11312701F93CF93DF93EC010E9415098C01CE01DB
S11312800E943309800F911FDF91CF911F910F911D
S113129008958F929F92AF92BF92EF92FF920F9315
S11312A01F93CF93DF93CDB7DEB7A1970FB6F89412
S11312B0DEBF0FBECDBF7C01FA01CB0119A22230E3
S11312C008F42AE08E010F5D1F4F822E912CA12C71
S11312D0B12CBF01A50194010E94A40CF901CA011B
S11312E0015011096A3010F4605D01C0695CD801D5
S11312F06C93232B242B252B61F7B801C7010E9483
S11313001509A1960FB6F894DEBF0FBECDBFDF91CD
S1131310CF911F910F91FF90EF90BF90AF909F904E
S11313208F9008952115310541F4DC01ED91FC9174
S11313300190F081E02D642F09940C9449099A01DD
S1131340AB0160E070E00C9492097F928F929F92BF
S1131350AF92BF92CF92DF92EF92FF920F931F93BF
S1131360CF93DF938C016A017B01722E9A01AB014A
S1131370C701B6010E948B0C882319F065E871E05F
S113138027C046015701E894B7F82FEF3FEF4FE726
S11313905FE7C501B4010E948B0C81110DC02FEFD2
S11313A03FEF4FE75FE7C501B4010E94BC0B18167D
S11313B01CF469E871E00CC02FEF3FEF4FE75FE4E6
S11313C0C701B6010E94860C181694F46DE871E00A
S11313D0C801DF91CF911F910F91FF90EF90DF90A3
S11313E0CF90BF90AF909F908F907F900C941509F1
S11313F02FEF3FEF4FE75FECC701B6010E94BC0B34
S113140087FDE4CF20E030E0A901C701B6010E94C6
S1131410BC0B87FF0AC06DE2C8010E942C09EC01D5
S1131420F7FAF094F7F8F09402C0C0E0D0E0B12CE1
S113143060E070E080E09FE37B1441F020E030E066
S113144040E251E40E94C10BB394F6CFA701960188
S11314500E94AB056B017C010E94330C4B015C01C3
S11314602AE0AB01BC01C8010E944909C80FD91F79
S11314707720B9F1C501B4010E9417069B01AC01A4
S1131480C701B6010E94AA056B017C016EE2C80186
S11314900E942C09C80FD91F20E030E040E251E43B
S11314A0C701B6010E94A5064B015C010E94330CE2
S11314B06B017C014AE050E0C8010E949F09C80FFB
S11314C0D91FB60180E090E00E9417069B01AC0191
S11314D0C501B4010E94AA056B017C017A947110C4
S11314E0DBCFCE01DF91CF911F910F91FF90EF9051
S11314F0DF90CF90BF90AF909F908F907F90089592
S11315000C94A5091F920F920FB60F9211242F93DA
S11315103F938F939F93AF93BF9380915102909188
S11315205202A0915302B09154023091500223E030
S1131530230F2D3720F40196A11DB11D05C026E807
S1131540230F0296A11DB11D2093500280935102D6
S113155090935202A0935302B09354028091550287
S113156090915602A0915702B09158020196A11D84
S1131570B11D8093550290935602A0935702B093E5
S11315805802BF91AF919F918F913F912F910F90EE
S11315900FBE0F901F9018952FB7F89460915102C9
S11315A07091520280915302909154022FBF08957A
S11315B03FB7F8948091550290915602A09157023A
S11315C0B091580226B5A89B05C02F3F19F001968B
S11315D0A11DB11D3FBFBA2FA92F982F8827820FB5
S11315E0911DA11DB11DBC01CD0142E0660F771F05
S11315F0881F991F4A95D1F708958F929F92AF92B1
S1131600BF92CF92DF92EF92FF926B017C010E9416
S1131610D80A4B015C01C114D104E104F10401F1C5
S11316200E94BB0B0E94D80ADC01CB0188199909DE
S1131630AA09BB09883E9340A105B10560F321E0E6
S1131640C21AD108E108F10888EE880E83E0981EDA
S1131650A11CB11CC114D104E104F10419F7DBCFBE
S1131660FF90EF90DF90CF90BF90AF909F908F90BE
S113167008958230910538F0880F991F880F991FBB
S113168005970197F1F70895789484B5826084BD35
S113169084B5816084BD85B5826085BD85B5816072
S11316A085BDEEE6F0E0808181608083E1E8F0E0D2
S11316B01082808182608083808181608083E0E801
S11316C0F0E0808181608083E1EBF0E080818460E0
S11316D08083E0EBF0E0808181608083EAE7F0E0E2
S11316E08081846080838081826080838081816046
S11316F080838081806880831092C1000895CF9395
S1131700DF9390E0FC01E859FE4F2491FC01E4587A
S1131710FE4F8491882361F190E0880F991FFC01AA
S1131720EC55FE4FC591D491FC01E656FE4FA591B0
S1131730B491611109C09FB7F894888120958223E0
S11317408883EC912E230BC0623061F49FB7F89428
S11317508881322F309583238883EC912E2B2C9310
S11317609FBF06C08FB7F894E8812E2B28838FBFC4
S1131770DF91CF91089508950E94620C08F481E0EE
S113178008950E94D50B0C946B060E94640658F0D1
S11317900E945D0640F029F45F3F29F00C94540642
S11317A051110C949F060C945A060E947C0668F30F
S11317B09923B1F3552391F3951B550BBB27AA2706
S11317C062177307840738F09F5F5F4F220F331F40
S11317D0441FAA1FA9F335D00E2E3AF0E0E832D008
S11317E091505040E695001CCAF72BD0FE2F29D00B
S11317F0660F771F881FBB1F261737074807AB07DD
S1131800B0E809F0BB0B802DBF01FF2793585F4F51
S11318103AF09E3F510578F00C9454060C949F06C0
S11318205F3FE4F3983ED4F3869577956795B79533
S1131830F7959F5FC9F7880F911D9695879597F93E
S11318400895E1E0660F771F881FBB1F62177307B7
S11318508407BA0720F0621B730B840BBA0BEE1FCC
S113186088F7E09508950E94840688F09F5798F0C1
S1131870B92F9927B751B0F0E1F0660F771F881F91
S1131880991F1AF0BA95C9F714C0B13091F00E94AB
S11318909E06B1E008950C949E06672F782F882742
S11318A0B85F39F0B93FCCF3869577956795B395D2
S11318B0D9F73EF490958095709561957F4F8F4F41
S11318C09F4F0895990F0008550FAA0BE0E8FEEF0B
S11318D016161706E807F907C0F012161306E407F0
S11318E0F50798F0621B730B840B950B39F40A26E9
S11318F061F0232B242B252B21F408950A2609F4C7
S1131900A140A6958FEF811D811D08950E94620C50
S113191008F48FEF08950E94620C880B990B0895C8
S113192097FB072E16F4009407D077FD09D00E9488
S1131930C60C07FC05D03EF4909581959F4F089501
S1131940709561957F4F0895A1E21A2EAA1BBB1BC7
S1131950FD010DC0AA1FBB1FEE1FFF1FA217B30777
S1131960E407F50720F0A21BB30BE40BF50B661F8D
S1131970771F881F991F1A9469F760957095809551
S113198090959B01AC01BD01CF010895AA1BBB1B1F
S113199051E107C0AA1FBB1FA617B70710F0A61B6B
S11319A0B70B881F991F5A95A9F780959095BC018C
S11319B0CD010895EE0FFF1F0590F491E02D0994D9
S10719C0F894FFCFC5
S11319C444616C6C61732054656D706572617475E7
S11319D4726520494320436F6E74726F6C204C69A6
S11319E462726172792044656D6F0020526571756D
S11319F4657374696E672074656D7065726174755E
S1131A047265732E2E2E00444F4E450054656D703E
S1131A146572617475726520666F722044657669B7
S1131A24636520312069733A20005E00BC007701AD
S1131A34000000007E07EB084007C50712072C07C7
S1131A441E070D0A006E616E00696E66006F76668D
S1051A5400008C
S9030000FC
