:100000000C942A000C943F000C943F000C943F0089
:100010000C943F000C943F000C943F000C943F0064
:100020000C943F000C943F000C943F000C943F0054
:100030000C943F000C943F000C943F000C943F0044
:100040000C943F000C943F000C943F000C943F0034
:100050000C943F0011241FBECFE5D8E0DEBFCDBF1A
:1000600010E0A0E6B0E0EAEFF0E002C005900D92EB
:10007000A437B107D9F70E9441000C947B000C947F
:100080000000CF93DF93CDB7DEB764970FB6F89437
:10009000DEBF0FBECDBF84E1E0E6F0E0DE011196E9
:1000A00001900D928A95E1F78FEF87BB84BBAE017B
:1000B0004B5E5F4F21E092E0FE01319625BB8081CF
:1000C000329688BB3FEF63EF81E031506040804063
:1000D000E1F700C0000095BB8B8188BB3FEF63EF69
:1000E00081E0315060408040E1F700C00000E4173B
:0A00F000F50721F7E1CFF894FFCFE8
:1000FA0000000100020003000400050006000700DA
:04010A0008000900E0
:00000001FF
