S01A0000373434376963536576656E7365676D656E742E7372656374
S11300000C942A000C943F000C943F000C943F0085
S11300100C943F000C943F000C943F000C943F0060
S11300200C943F000C943F000C943F000C943F0050
S11300300C943F000C943F000C943F000C943F0040
S11300400C943F000C943F000C943F000C943F0030
S11300500C943F0011241FBECFE5D8E0DEBFCDBF16
S113006010E0A0E6B0E0E8EDF0E002C005900D92EB
S1130070AA36B107D9F70E9441000C946A000C9487
S11300800000CF93DF93CDB7DEB72A970FB6F8946D
S1130090DEBF0FBECDBF8FEF84BB9E01255F3F4FF8
S11300A08AE0E0E6F0E0DE01119601900D928A9577
S11300B0E1F7FE013196819185BB4FE78AE196E035
S11300C0415080409040E1F700C00000E217F30780
S10B00D091F7E6CFF894FFCF8D
S10D00D800010203040506070809ED
S9030000FC
