S0110000686F6D657461736B322E7372656385
S11300000C942A000C9434000C9434000C943400A6
S11300100C9434000C9434000C9434000C9434008C
S11300200C9434000C9434000C9434000C9434007C
S11300300C9434000C9434000C9434000C9434006C
S11300400C9434000C9434000C9434000C9434005C
S11300500C94340011241FBECFE5D8E0DEBFCDBF21
S11300600E9436000C9454000C9400008FEF81BB66
S113007061E070E080E090E042B39B01082E02C092
S1130080220F331F0A94E2F7242B22BB2FE738E315
S113009041E0215030404040E1F700C000000196AB
S10F00A08830910549F7E6CFF894FFCFB3
S9030000FC
